{
  "_format": "hh-sol-artifact-1",
  "contractName": "BasifyUpgradeable",
  "sourceName": "contracts/BasifyUpgradeable.sol",
  "abi": [
    {
      "anonymous": false,
      "inputs": [
        {
          "indexed": false,
          "internalType": "address",
          "name": "user",
          "type": "address"
        }
      ],
      "name": "AddedToRandomList",
      "type": "event"
    },
    {
      "anonymous": false,
      "inputs": [
        {
          "indexed": false,
          "internalType": "address",
          "name": "previousAdmin",
          "type": "address"
        },
        {
          "indexed": false,
          "internalType": "address",
          "name": "newAdmin",
          "type": "address"
        }
      ],
      "name": "AdminChanged",
      "type": "event"
    },
    {
      "anonymous": false,
      "inputs": [
        {
          "indexed": true,
          "internalType": "address",
          "name": "beacon",
          "type": "address"
        }
      ],
      "name": "BeaconUpgraded",
      "type": "event"
    },
    {
      "anonymous": false,
      "inputs": [
        {
          "indexed": false,
          "internalType": "uint8",
          "name": "version",
          "type": "uint8"
        }
      ],
      "name": "Initialized",
      "type": "event"
    },
    {
      "anonymous": false,
      "inputs": [
        {
          "indexed": true,
          "internalType": "address",
          "name": "previousOwner",
          "type": "address"
        },
        {
          "indexed": true,
          "internalType": "address",
          "name": "newOwner",
          "type": "address"
        }
      ],
      "name": "OwnershipTransferred",
      "type": "event"
    },
    {
      "anonymous": false,
      "inputs": [
        {
          "indexed": false,
          "internalType": "address",
          "name": "by",
          "type": "address"
        },
        {
          "indexed": false,
          "internalType": "address",
          "name": "to",
          "type": "address"
        },
        {
          "indexed": false,
          "internalType": "address",
          "name": "user",
          "type": "address"
        }
      ],
      "name": "ParentAdded",
      "type": "event"
    },
    {
      "anonymous": false,
      "inputs": [
        {
          "indexed": false,
          "internalType": "address",
          "name": "to",
          "type": "address"
        },
        {
          "indexed": false,
          "internalType": "address",
          "name": "user",
          "type": "address"
        },
        {
          "indexed": false,
          "internalType": "uint256",
          "name": "valueInWei",
          "type": "uint256"
        },
        {
          "indexed": false,
          "internalType": "uint32",
          "name": "level",
          "type": "uint32"
        }
      ],
      "name": "ReferralRewardsPaid",
      "type": "event"
    },
    {
      "anonymous": false,
      "inputs": [
        {
          "indexed": false,
          "internalType": "address",
          "name": "by",
          "type": "address"
        },
        {
          "indexed": false,
          "internalType": "address",
          "name": "user",
          "type": "address"
        }
      ],
      "name": "ReferrerAdded",
      "type": "event"
    },
    {
      "anonymous": false,
      "inputs": [
        {
          "indexed": false,
          "internalType": "string",
          "name": "reason",
          "type": "string"
        }
      ],
      "name": "ReferrerNoAdded",
      "type": "event"
    },
    {
      "anonymous": false,
      "inputs": [
        {
          "indexed": false,
          "internalType": "address",
          "name": "by",
          "type": "address"
        },
        {
          "indexed": false,
          "internalType": "address",
          "name": "to",
          "type": "address"
        },
        {
          "indexed": false,
          "internalType": "address",
          "name": "user",
          "type": "address"
        },
        {
          "indexed": false,
          "internalType": "uint256",
          "name": "valueInWei",
          "type": "uint256"
        }
      ],
      "name": "Registration",
      "type": "event"
    },
    {
      "anonymous": false,
      "inputs": [
        {
          "indexed": false,
          "internalType": "address",
          "name": "by",
          "type": "address"
        },
        {
          "indexed": false,
          "internalType": "address",
          "name": "to",
          "type": "address"
        },
        {
          "indexed": false,
          "internalType": "address",
          "name": "user",
          "type": "address"
        }
      ],
      "name": "RegistrationAssigned",
      "type": "event"
    },
    {
      "anonymous": false,
      "inputs": [
        {
          "indexed": false,
          "internalType": "address",
          "name": "user",
          "type": "address"
        }
      ],
      "name": "RemovedFromRandomList",
      "type": "event"
    },
    {
      "anonymous": false,
      "inputs": [
        {
          "indexed": false,
          "internalType": "address",
          "name": "to",
          "type": "address"
        },
        {
          "indexed": false,
          "internalType": "address",
          "name": "user",
          "type": "address"
        },
        {
          "indexed": false,
          "internalType": "uint32",
          "name": "level",
          "type": "uint32"
        }
      ],
      "name": "TeamAddressAdded",
      "type": "event"
    },
    {
      "anonymous": false,
      "inputs": [
        {
          "indexed": false,
          "internalType": "address",
          "name": "to",
          "type": "address"
        },
        {
          "indexed": false,
          "internalType": "uint256",
          "name": "valueInWei",
          "type": "uint256"
        }
      ],
      "name": "TeamWalletRewardPaid",
      "type": "event"
    },
    {
      "anonymous": false,
      "inputs": [
        {
          "indexed": false,
          "internalType": "string",
          "name": "reason",
          "type": "string"
        }
      ],
      "name": "UpgradeRewardNotPaid",
      "type": "event"
    },
    {
      "anonymous": false,
      "inputs": [
        {
          "indexed": false,
          "internalType": "address",
          "name": "to",
          "type": "address"
        },
        {
          "indexed": false,
          "internalType": "address",
          "name": "by",
          "type": "address"
        },
        {
          "indexed": false,
          "internalType": "uint256",
          "name": "valueInWei",
          "type": "uint256"
        }
      ],
      "name": "UpgradeRewardPaid",
      "type": "event"
    },
    {
      "anonymous": false,
      "inputs": [
        {
          "indexed": true,
          "internalType": "address",
          "name": "implementation",
          "type": "address"
        }
      ],
      "name": "Upgraded",
      "type": "event"
    },
    {
      "anonymous": false,
      "inputs": [
        {
          "indexed": false,
          "internalType": "string",
          "name": "reason",
          "type": "string"
        }
      ],
      "name": "WeeklyRewardNotPaid",
      "type": "event"
    },
    {
      "anonymous": false,
      "inputs": [
        {
          "indexed": false,
          "internalType": "address",
          "name": "to",
          "type": "address"
        },
        {
          "indexed": false,
          "internalType": "uint256",
          "name": "valueInWei",
          "type": "uint256"
        }
      ],
      "name": "WeeklyRewardPaid",
      "type": "event"
    },
    {
      "inputs": [
        {
          "internalType": "address",
          "name": "_chainLinkOracleAddress",
          "type": "address"
        }
      ],
      "name": "checkIfChainLinkOracleAddressSupporeted",
      "outputs": [
        {
          "internalType": "bool",
          "name": "",
          "type": "bool"
        }
      ],
      "stateMutability": "view",
      "type": "function"
    },
    {
      "inputs": [
        {
          "internalType": "address",
          "name": "_chainLinkOracleAddress",
          "type": "address"
        }
      ],
      "name": "distributeWeeklyReward",
      "outputs": [],
      "stateMutability": "nonpayable",
      "type": "function"
    },
    {
      "inputs": [],
      "name": "getAllUsers",
      "outputs": [
        {
          "internalType": "address[]",
          "name": "",
          "type": "address[]"
        }
      ],
      "stateMutability": "view",
      "type": "function"
    },
    {
      "inputs": [],
      "name": "getContractDefaults",
      "outputs": [
        {
          "internalType": "address",
          "name": "teamWallet",
          "type": "address"
        },
        {
          "internalType": "uint256",
          "name": "teamWalletRate",
          "type": "uint256"
        },
        {
          "internalType": "address",
          "name": "liquidityWallet",
          "type": "address"
        },
        {
          "internalType": "uint256",
          "name": "liquidityCreationrate",
          "type": "uint256"
        },
        {
          "internalType": "address",
          "name": "defaultReferrer",
          "type": "address"
        },
        {
          "internalType": "uint256",
          "name": "registrationValueInUSD",
          "type": "uint256"
        }
      ],
      "stateMutability": "view",
      "type": "function"
    },
    {
      "inputs": [
        {
          "internalType": "address",
          "name": "_chainLinkOracleAddress",
          "type": "address"
        }
      ],
      "name": "getNativePriceInUSD",
      "outputs": [
        {
          "internalType": "uint256",
          "name": "",
          "type": "uint256"
        }
      ],
      "stateMutability": "view",
      "type": "function"
    },
    {
      "inputs": [],
      "name": "getRandomUserList",
      "outputs": [
        {
          "internalType": "address[]",
          "name": "",
          "type": "address[]"
        }
      ],
      "stateMutability": "view",
      "type": "function"
    },
    {
      "inputs": [],
      "name": "getRegistrationsStats",
      "outputs": [
        {
          "internalType": "uint32",
          "name": "totalUser",
          "type": "uint32"
        },
        {
          "internalType": "uint256",
          "name": "totalRegistrationValueInUSD",
          "type": "uint256"
        },
        {
          "internalType": "uint256",
          "name": "totalReferralPaidInUSD",
          "type": "uint256"
        },
        {
          "internalType": "uint256",
          "name": "totalWeeklyRewardsPaidInUSD",
          "type": "uint256"
        }
      ],
      "stateMutability": "view",
      "type": "function"
    },
    {
      "inputs": [],
      "name": "getSupportedChainLinkOracleAddress",
      "outputs": [
        {
          "internalType": "address[]",
          "name": "",
          "type": "address[]"
        }
      ],
      "stateMutability": "view",
      "type": "function"
    },
    {
      "inputs": [],
      "name": "getUpgradePlans",
      "outputs": [
        {
          "components": [
            {
              "internalType": "uint8",
              "name": "id",
              "type": "uint8"
            },
            {
              "internalType": "uint256",
              "name": "valueToUpgradeInUSD",
              "type": "uint256"
            }
          ],
          "internalType": "struct UpgradeStruct[]",
          "name": "upgradePlans",
          "type": "tuple[]"
        },
        {
          "internalType": "uint8",
          "name": "upgradePlansCount",
          "type": "uint8"
        }
      ],
      "stateMutability": "view",
      "type": "function"
    },
    {
      "inputs": [
        {
          "internalType": "uint8",
          "name": "_id",
          "type": "uint8"
        }
      ],
      "name": "getUpgradePlansById",
      "outputs": [
        {
          "components": [
            {
              "internalType": "uint8",
              "name": "id",
              "type": "uint8"
            },
            {
              "internalType": "uint256",
              "name": "valueToUpgradeInUSD",
              "type": "uint256"
            }
          ],
          "internalType": "struct UpgradeStruct",
          "name": "",
          "type": "tuple"
        }
      ],
      "stateMutability": "view",
      "type": "function"
    },
    {
      "inputs": [
        {
          "internalType": "address",
          "name": "_userAddress",
          "type": "address"
        }
      ],
      "name": "getUserAccount",
      "outputs": [
        {
          "components": [
            {
              "internalType": "address",
              "name": "self",
              "type": "address"
            },
            {
              "internalType": "address",
              "name": "parent",
              "type": "address"
            },
            {
              "internalType": "address",
              "name": "referrer",
              "type": "address"
            },
            {
              "internalType": "address[]",
              "name": "referee",
              "type": "address[]"
            },
            {
              "components": [
                {
                  "internalType": "address",
                  "name": "referee",
                  "type": "address"
                },
                {
                  "internalType": "address",
                  "name": "assignedTo",
                  "type": "address"
                }
              ],
              "internalType": "struct RefereeStruct[]",
              "name": "refereeAssigned",
              "type": "tuple[]"
            },
            {
              "components": [
                {
                  "internalType": "address",
                  "name": "teamMember",
                  "type": "address"
                },
                {
                  "internalType": "uint8",
                  "name": "level",
                  "type": "uint8"
                }
              ],
              "internalType": "struct TeamStruct[]",
              "name": "team",
              "type": "tuple[]"
            },
            {
              "internalType": "uint256",
              "name": "selfBusinessInUSD",
              "type": "uint256"
            },
            {
              "internalType": "uint256",
              "name": "upgradedValueInUSD",
              "type": "uint256"
            },
            {
              "internalType": "uint8",
              "name": "upgradeId",
              "type": "uint8"
            },
            {
              "internalType": "uint256",
              "name": "directBusinessInUSD",
              "type": "uint256"
            },
            {
              "internalType": "uint256",
              "name": "teamBusinessInUSD",
              "type": "uint256"
            },
            {
              "internalType": "uint256",
              "name": "referralRewardsInUSD",
              "type": "uint256"
            },
            {
              "internalType": "uint256",
              "name": "weeklyRewardsInUSD",
              "type": "uint256"
            },
            {
              "internalType": "uint256",
              "name": "upgradeRewardsInUSD",
              "type": "uint256"
            },
            {
              "internalType": "uint256",
              "name": "userRandomIndex",
              "type": "uint256"
            }
          ],
          "internalType": "struct AccountStruct",
          "name": "",
          "type": "tuple"
        }
      ],
      "stateMutability": "view",
      "type": "function"
    },
    {
      "inputs": [
        {
          "internalType": "address",
          "name": "_userAddress",
          "type": "address"
        }
      ],
      "name": "getUserBusiness",
      "outputs": [
        {
          "internalType": "uint256",
          "name": "selfBusinessInUSD",
          "type": "uint256"
        },
        {
          "internalType": "uint256",
          "name": "directBusinessInUSD",
          "type": "uint256"
        },
        {
          "internalType": "uint256",
          "name": "teamBusinessInUSD",
          "type": "uint256"
        },
        {
          "internalType": "uint256",
          "name": "totalBusinessInUSD",
          "type": "uint256"
        }
      ],
      "stateMutability": "view",
      "type": "function"
    },
    {
      "inputs": [
        {
          "internalType": "address",
          "name": "_userAddress",
          "type": "address"
        }
      ],
      "name": "getUserCurrentUpgradeLevel",
      "outputs": [
        {
          "internalType": "uint8",
          "name": "level",
          "type": "uint8"
        },
        {
          "internalType": "uint256",
          "name": "totalUpgradeValueInUSD",
          "type": "uint256"
        }
      ],
      "stateMutability": "view",
      "type": "function"
    },
    {
      "inputs": [
        {
          "internalType": "address",
          "name": "_userAddress",
          "type": "address"
        }
      ],
      "name": "getUserRewards",
      "outputs": [
        {
          "internalType": "uint256",
          "name": "referralRewardInUSD",
          "type": "uint256"
        },
        {
          "internalType": "uint256",
          "name": "weeklyRewardInUSD",
          "type": "uint256"
        },
        {
          "internalType": "uint256",
          "name": "upgradeRewardsInUSD",
          "type": "uint256"
        },
        {
          "internalType": "uint256",
          "name": "totalRewards",
          "type": "uint256"
        }
      ],
      "stateMutability": "view",
      "type": "function"
    },
    {
      "inputs": [
        {
          "internalType": "address",
          "name": "_userAddress",
          "type": "address"
        }
      ],
      "name": "getUserTeam",
      "outputs": [
        {
          "internalType": "address",
          "name": "referrer",
          "type": "address"
        },
        {
          "internalType": "address[]",
          "name": "referees",
          "type": "address[]"
        },
        {
          "internalType": "uint256",
          "name": "refereeCount",
          "type": "uint256"
        },
        {
          "components": [
            {
              "internalType": "address",
              "name": "referee",
              "type": "address"
            },
            {
              "internalType": "address",
              "name": "assignedTo",
              "type": "address"
            }
          ],
          "internalType": "struct RefereeStruct[]",
          "name": "refereeAssigned",
          "type": "tuple[]"
        },
        {
          "internalType": "uint256",
          "name": "refereeAssignedCount",
          "type": "uint256"
        },
        {
          "components": [
            {
              "internalType": "address",
              "name": "teamMember",
              "type": "address"
            },
            {
              "internalType": "uint8",
              "name": "level",
              "type": "uint8"
            }
          ],
          "internalType": "struct TeamStruct[]",
          "name": "team",
          "type": "tuple[]"
        },
        {
          "internalType": "uint256",
          "name": "teamCount",
          "type": "uint256"
        }
      ],
      "stateMutability": "view",
      "type": "function"
    },
    {
      "inputs": [],
      "name": "getWeeklyRewardToBeDistributed",
      "outputs": [
        {
          "internalType": "uint256",
          "name": "rewardValue",
          "type": "uint256"
        },
        {
          "internalType": "uint256",
          "name": "remianingTime",
          "type": "uint256"
        },
        {
          "internalType": "uint256",
          "name": "endTime",
          "type": "uint256"
        }
      ],
      "stateMutability": "view",
      "type": "function"
    },
    {
      "inputs": [],
      "name": "initialize",
      "outputs": [],
      "stateMutability": "nonpayable",
      "type": "function"
    },
    {
      "inputs": [
        {
          "internalType": "address",
          "name": "_chainLinkOracleAddress",
          "type": "address"
        }
      ],
      "name": "needNativeToRegister",
      "outputs": [
        {
          "internalType": "uint256",
          "name": "",
          "type": "uint256"
        }
      ],
      "stateMutability": "view",
      "type": "function"
    },
    {
      "inputs": [],
      "name": "owner",
      "outputs": [
        {
          "internalType": "address",
          "name": "",
          "type": "address"
        }
      ],
      "stateMutability": "view",
      "type": "function"
    },
    {
      "inputs": [],
      "name": "proxiableUUID",
      "outputs": [
        {
          "internalType": "bytes32",
          "name": "",
          "type": "bytes32"
        }
      ],
      "stateMutability": "view",
      "type": "function"
    },
    {
      "inputs": [
        {
          "internalType": "address",
          "name": "_referrer",
          "type": "address"
        },
        {
          "internalType": "address",
          "name": "_chainLinkOracleAddress",
          "type": "address"
        }
      ],
      "name": "registrationNative",
      "outputs": [],
      "stateMutability": "payable",
      "type": "function"
    },
    {
      "inputs": [],
      "name": "renounceOwnership",
      "outputs": [],
      "stateMutability": "nonpayable",
      "type": "function"
    },
    {
      "inputs": [
        {
          "internalType": "address",
          "name": "_chainLinkOracleAddress",
          "type": "address"
        },
        {
          "internalType": "bool",
          "name": "_status",
          "type": "bool"
        }
      ],
      "name": "setChainLinkOracleAddress",
      "outputs": [],
      "stateMutability": "nonpayable",
      "type": "function"
    },
    {
      "inputs": [],
      "name": "setDefaults",
      "outputs": [],
      "stateMutability": "nonpayable",
      "type": "function"
    },
    {
      "inputs": [
        {
          "internalType": "address",
          "name": "newOwner",
          "type": "address"
        }
      ],
      "name": "transferOwnership",
      "outputs": [],
      "stateMutability": "nonpayable",
      "type": "function"
    },
    {
      "inputs": [
        {
          "internalType": "uint256[]",
          "name": "_valueToUpgradeInDecimals",
          "type": "uint256[]"
        }
      ],
      "name": "updateUpgradePlans",
      "outputs": [],
      "stateMutability": "nonpayable",
      "type": "function"
    },
    {
      "inputs": [
        {
          "internalType": "address",
          "name": "_chainLinkOracleAddress",
          "type": "address"
        }
      ],
      "name": "upgradeAccountNative",
      "outputs": [],
      "stateMutability": "payable",
      "type": "function"
    },
    {
      "inputs": [
        {
          "internalType": "address",
          "name": "newImplementation",
          "type": "address"
        }
      ],
      "name": "upgradeTo",
      "outputs": [],
      "stateMutability": "nonpayable",
      "type": "function"
    },
    {
      "inputs": [
        {
          "internalType": "address",
          "name": "newImplementation",
          "type": "address"
        },
        {
          "internalType": "bytes",
          "name": "data",
          "type": "bytes"
        }
      ],
      "name": "upgradeToAndCall",
      "outputs": [],
      "stateMutability": "payable",
      "type": "function"
    },
    {
      "stateMutability": "payable",
      "type": "receive"
    }
  ],
  "bytecode": "0x60a06040523060805234801561001457600080fd5b50608051614fec61004c600039600081816109d801528181610a5d01528181610b5301528181610bd80152610cc20152614fec6000f3fe6080604052600436106101c65760003560e01c80638129fc1c116100f7578063d277b8a911610095578063f87127b411610064578063f87127b4146105b6578063f9250171146105d6578063faeda7e51461060f578063fb47e0161461064257600080fd5b8063d277b8a914610541578063e2842d7914610561578063e35422e714610576578063f2fde38b1461059657600080fd5b8063a0db38e5116100d1578063a0db38e51461049b578063a7be6a72146104ae578063a9df9fae146104c3578063c53b219e1461052e57600080fd5b80638129fc1c1461042e578063846688f7146104435780638da5cb5b1461047357600080fd5b80634f1ef286116101645780635eda81ce1161013e5780635eda81ce146103c45780636a746311146103e4578063715018a6146104045780637ec37e031461041957600080fd5b80634f1ef2861461037957806352d1902d1461038c57806359a04544146103a157600080fd5b806308e922ba116101a057806308e922ba1461028557806311f4d576146102a75780631a746344146102f05780633659cfe61461035757600080fd5b80630690c6a8146101d2578063078b0fb71461021757806307c560d11461025757600080fd5b366101cd57005b600080fd5b3480156101de57600080fd5b5060c95460cb5460cc5460ce546040805163ffffffff909516855260208501939093529183015260608201526080015b60405180910390f35b34801561022357600080fd5b506102376102323660046147d7565b61066f565b60408051948552602085019390935291830152606082015260800161020e565b34801561026357600080fd5b506102776102723660046147d7565b6108a6565b60405190815260200161020e565b34801561029157600080fd5b5061029a61096c565b60405161020e9190614836565b3480156102b357600080fd5b506102e06102c23660046147d7565b6001600160a01b0316600090815260dd602052604090205460ff1690565b604051901515815260200161020e565b3480156102fc57600080fd5b5060cf5460d95460d15460d75460d854604080516001600160a01b03808816825260ff600160a01b909804881660208301529586169181019190915294909216606085015291909116608083015260a082015260c00161020e565b34801561036357600080fd5b506103776103723660046147d7565b6109ce565b005b61037761038736600461485f565b610b49565b34801561039857600080fd5b50610277610cb5565b3480156103ad57600080fd5b506103b6610d7a565b60405161020e929190614921565b3480156103d057600080fd5b506103776103df366004614986565b610e68565b3480156103f057600080fd5b506102776103ff3660046147d7565b6110b1565b34801561041057600080fd5b506103776110bc565b34801561042557600080fd5b5061029a6110d0565b34801561043a57600080fd5b50610377611130565b34801561044f57600080fd5b50610458611318565b6040805193845260208401929092529082015260600161020e565b34801561047f57600080fd5b506033546040516001600160a01b03909116815260200161020e565b6103776104a93660046147d7565b61134e565b3480156104ba57600080fd5b506103776113dd565b3480156104cf57600080fd5b506105216104de3660046149d1565b6040805180820182526000808252602091820181905260ff938416815260dc82528290208251808401909352805490931682526001909201549181019190915290565b60405161020e91906149ee565b61037761053c366004614a08565b61150d565b34801561054d57600080fd5b5061037761055c3660046147d7565b61164c565b34801561056d57600080fd5b5061029a6119e0565b34801561058257600080fd5b50610377610591366004614a3b565b611a40565b3480156105a257600080fd5b506103776105b13660046147d7565b611ae8565b3480156105c257600080fd5b506102376105d13660046147d7565b611b75565b3480156105e257600080fd5b506105f66105f13660046147d7565b611d97565b6040805160ff909316835260208301919091520161020e565b34801561061b57600080fd5b5061062f61062a3660046147d7565b611fbb565b60405161020e9796959493929190614b3f565b34801561064e57600080fd5b5061066261065d3660046147d7565b612202565b60405161020e9190614ba8565b6001600160a01b03808216600090815260db6020908152604080832081516101e08101835281548616815260018201548616818501526002820154909516858301526003810180548351818602810186019094528084529495869586958695869593946060860193919290919083018282801561071557602002820191906000526020600020905b81546001600160a01b031681526001909101906020018083116106f7575b5050505050815260200160048201805480602002602001604051908101604052809291908181526020016000905b8282101561078e576000848152602090819020604080518082019091526002850290910180546001600160a01b03908116835260019182015416828401529083529092019101610743565b50505050815260200160058201805480602002602001604051908101604052809291908181526020016000905b8282101561080457600084815260209081902060408051808201909152908401546001600160a01b0381168252600160a01b900460ff16818301528252600190920191016107bb565b505050908252506006820154602082015260078201546040820152600882015460ff16606082015260098201546080820152600a82015460a0820152600b82015460c0820152600c82015460e0820152600d820154610100820152600e90910154610120909101526101608101516101808201516101a0830151919750955093509050826108928587614ce5565b61089c9190614ce5565b9150509193509193565b6001600160a01b038116600090815260dd602052604081205460ff16151560011461093e5760405162461bcd60e51b815260206004820152603960248201527f506c6561736520636865636b2074686520636861696e4c696e6b4f7261636c6560448201527f41646472657373206f72206e6f7420737570706f727465642e0000000000000060648201526084015b60405180910390fd5b61094782612491565b60d85461095c90670de0b6b3a7640000614cf8565b6109669190614d25565b92915050565b606060da8054806020026020016040519081016040528092919081815260200182805480156109c457602002820191906000526020600020905b81546001600160a01b031681526001909101906020018083116109a6575b5050505050905090565b6001600160a01b037f0000000000000000000000000000000000000000000000000000000000000000163003610a5b5760405162461bcd60e51b815260206004820152602c60248201527f46756e6374696f6e206d7573742062652063616c6c6564207468726f7567682060448201526b19195b1959d85d1958d85b1b60a21b6064820152608401610935565b7f00000000000000000000000000000000000000000000000000000000000000006001600160a01b0316610ab67f360894a13ba1a3210667c828492db98dca3e2076cc3735a920a3ca505d382bbc546001600160a01b031690565b6001600160a01b031614610b215760405162461bcd60e51b815260206004820152602c60248201527f46756e6374696f6e206d7573742062652063616c6c6564207468726f7567682060448201526b6163746976652070726f787960a01b6064820152608401610935565b610b2a8161256f565b60408051600080825260208201909252610b4691839190612577565b50565b6001600160a01b037f0000000000000000000000000000000000000000000000000000000000000000163003610bd65760405162461bcd60e51b815260206004820152602c60248201527f46756e6374696f6e206d7573742062652063616c6c6564207468726f7567682060448201526b19195b1959d85d1958d85b1b60a21b6064820152608401610935565b7f00000000000000000000000000000000000000000000000000000000000000006001600160a01b0316610c317f360894a13ba1a3210667c828492db98dca3e2076cc3735a920a3ca505d382bbc546001600160a01b031690565b6001600160a01b031614610c9c5760405162461bcd60e51b815260206004820152602c60248201527f46756e6374696f6e206d7573742062652063616c6c6564207468726f7567682060448201526b6163746976652070726f787960a01b6064820152608401610935565b610ca58261256f565b610cb182826001612577565b5050565b6000306001600160a01b037f00000000000000000000000000000000000000000000000000000000000000001614610d555760405162461bcd60e51b815260206004820152603860248201527f555550535570677261646561626c653a206d757374206e6f742062652063616c60448201527f6c6564207468726f7567682064656c656761746563616c6c00000000000000006064820152608401610935565b507f360894a13ba1a3210667c828492db98dca3e2076cc3735a920a3ca505d382bbc90565b60606000610d86612717565b905060008160ff1667ffffffffffffffff811115610da657610da6614849565b604051908082528060200260200182016040528015610deb57816020015b6040805180820190915260008082526020820152815260200190600190039081610dc45790505b50905060005b8260ff168160ff161015610e615760ff808216600081815260dc60209081526040918290208251808401909352805490941682526001909301549281019290925283518491908110610e4557610e45614d39565b602002602001018190525080610e5a90614d4f565b9050610df1565b5092909150565b610e70612765565b6001600160a01b038216600090815260dd602052604090205460ff1681151581151503610edf5760405162461bcd60e51b815260206004820152601260248201527f53746174757320616c72656164792073657400000000000000000000000000006044820152606401610935565b6001600160a01b038316600090815260dd60205260409020805460ff1916831515908117909155600103610f5f5760da80546001810182556000919091527fb3d6e86317c38844915b053a0c35ff2fc103b684e96cef2918ab06844eb51aaf0180546001600160a01b0385166001600160a01b0319909116179055505050565b600060da805480602002602001604051908101604052809291908181526020018280548015610fb757602002820191906000526020600020905b81546001600160a01b03168152600190910190602001808311610f99575b505083519394506000925050505b818110156110a857856001600160a01b0316838281518110610fe957610fe9614d39565b60200260200101516001600160a01b031603611098578261100b600184614d6e565b8151811061101b5761101b614d39565b602002602001015160da828154811061103657611036614d39565b9060005260206000200160006101000a8154816001600160a01b0302191690836001600160a01b0316021790555060da80548061107557611075614d81565b600082815260209020810160001990810180546001600160a01b03191690550190555b6110a181614d97565b9050610fc5565b5050505b505050565b600061096682612491565b6110c4612765565b6110ce60006127bf565b565b606060ca8054806020026020016040519081016040528092919081815260200182805480156109c4576020028201919060005260206000209081546001600160a01b031681526001909101906020018083116109a6575050505050905090565b600054610100900460ff16158080156111505750600054600160ff909116105b8061116a5750303b15801561116a575060005460ff166001145b6111dc5760405162461bcd60e51b815260206004820152602e60248201527f496e697469616c697a61626c653a20636f6e747261637420697320616c72656160448201527f647920696e697469616c697a65640000000000000000000000000000000000006064820152608401610935565b6000805460ff1916600117905580156111ff576000805461ff0019166101001790555b60d7805473076f6eed63c6631eeed902ba786713d8358562526001600160a01b0319918216179091556802b5e3af16b188000060d85560d5805461ffff191661083c179055600260d65560cf805474ffffffffffffffffffffffffffffffffffffffffff1916741078f0e036694447c038ee75434ab4831648cb791817905560d18054601460ff199182161790915560d3805490911660041790554260d45560d9805473dc1d994a41ca203df8a5bab8b55c2664f5f880d492169190911790556112c7612811565b6112cf612884565b8015610b46576000805461ff0019169055604051600181527f7f26b83ff96e1f2b6a682f133852f6798a09c465da95921460cefb3847402498906020015b60405180910390a150565b60d25460d45460009081906113309062093a80614ce5565b90504280821115611348576113458183614d6e565b92505b50909192565b6001600160a01b038116600090815260dd602052604090205460ff1615156001146113bb5760405162461bcd60e51b815260206004820152601660248201527f43757272656e6379206e6f7420737570706f72746564000000000000000000006044820152606401610935565b3460006113d0826113cb85612491565b6128ef565b90506110ac82823361290e565b6113e5612765565b60d780546001600160a01b03908116600081815260db60209081526040822080546001600160a01b0319908116909417815585546001828101805487169288169290921790915569152d02c7e14af6800000600690920191909155945460ca80548088019091557f42d72674974f694b5f5159593243114d38a5c39c89d6b62fee061ff523240ee10180548516919095161790935560da805480860182557fb3d6e86317c38844915b053a0c35ff2fc103b684e96cef2918ab06844eb51aaf908101805485167371041dddad3595f9ced3dccfbe3d1f4b0a16bb7090811790915582548088019093559101805490931681179092555260dd90527f9ff10cc863199a87eea0ac31928b530d2a31c0ee47284d2f2d6f5b770b793122805460ff19169091179055565b6001600160a01b0382166115895760405162461bcd60e51b815260206004820152602360248201527f5a65726f20416464726573732063616e6e6f742062652074686520726566657260448201527f72657200000000000000000000000000000000000000000000000000000000006064820152608401610935565b6001600160a01b038116600090815260dd602052604090205460ff16151560011461161c5760405162461bcd60e51b815260206004820152602360248201527f43757272656e637920596f752073656c6563746564206e6f7420737570706f7260448201527f74656400000000000000000000000000000000000000000000000000000000006064820152608401610935565b34600061162883612491565b9050600061163683836128ef565b90506116458533838686612ce0565b5050505050565b6001600160a01b038116600090815260dd602052604090205460ff1615156001146116b95760405162461bcd60e51b815260206004820152601660248201527f43757272656e6379206e6f7420737570706f72746564000000000000000000006044820152606401610935565b60d25460006116cb826113cb85612491565b9050600060d45462093a806116e09190614ce5565b905042818110156117335760405162461bcd60e51b815260206004820152601c60248201527f5765656b6c792074696d65206973206e6f74206f766572207965742e000000006044820152606401610935565b600060d254116117855760405162461bcd60e51b815260206004820152601860248201527f4e6f207265776172647320746f206469737472696275746500000000000000006044820152606401610935565b600060c98054806020026020016040519081016040528092919081815260200182805480156117dd57602002820191906000526020600020905b81546001600160a01b031681526001909101906020018083116117bf575b50505050509050600042446001436117f59190614d6e565b6040805160208101949094528301919091524060608201526080016040516020818303038152906040528051906020012060001c9050600082518261183a9190614db0565b9050600083828151811061185057611850614d39565b6020026020010151905060006001600160a01b0316816001600160a01b031614611947576001600160a01b038116600090815260db60205260408120600c8101805491928a926118a1908490614ce5565b90915550506040516001600160a01b038316908a156108fc02908b906000818181858888f193505050501580156118dc573d6000803e3d6000fd5b50600060d28190554260d45560ce80548a92906118fa908490614ce5565b9091555050604080516001600160a01b0384168152602081018a90527f6dbdd944bdf6514aca26947d204530e2ecbea365677ef05fee7a56d54a145697910160405180910390a1506119d5565b7f974c744afa915921dddb0f53fdbfdd97fef12a94db2457dcf878aa94ad6872746040516119cc9060208082526031908201527f52616e646f6d206164647265737320776173207a65726f20616464726573732e60408201527f20506c656173652074727920616761696e000000000000000000000000000000606082015260800190565b60405180910390a15b505050505050505050565b606060c98054806020026020016040519081016040528092919081815260200182805480156109c4576020028201919060005260206000209081546001600160a01b031681526001909101906020018083116109a6575050505050905090565b611a48612765565b60005b60ff81168211156110ac576040518060400160405280826001611a6e9190614dc4565b60ff16815260200184848460ff16818110611a8b57611a8b614d39565b90506020020135670de0b6b3a7640000611aa59190614cf8565b905260ff828116600090815260dc602090815260409091208351815460ff191693169290921782559190910151600190910155611ae181614d4f565b9050611a4b565b611af0612765565b6001600160a01b038116611b6c5760405162461bcd60e51b815260206004820152602660248201527f4f776e61626c653a206e6577206f776e657220697320746865207a65726f206160448201527f64647265737300000000000000000000000000000000000000000000000000006064820152608401610935565b610b46816127bf565b6001600160a01b03808216600090815260db6020908152604080832081516101e081018352815486168152600182015486168185015260028201549095168583015260038101805483518186028101860190945280845294958695869586958695939460608601939192909190830182828015611c1b57602002820191906000526020600020905b81546001600160a01b03168152600190910190602001808311611bfd575b5050505050815260200160048201805480602002602001604051908101604052809291908181526020016000905b82821015611c94576000848152602090819020604080518082019091526002850290910180546001600160a01b03908116835260019182015416828401529083529092019101611c49565b50505050815260200160058201805480602002602001604051908101604052809291908181526020016000905b82821015611d0a57600084815260209081902060408051808201909152908401546001600160a01b0381168252600160a01b900460ff1681830152825260019092019101611cc1565b505050908252506006820154602082015260078201546040820152600882015460ff16606082015260098201546080820152600a82015460a0820152600b82015460c080830191909152600c83015460e0830152600d830154610100830152600e9092015461012091820152908201519082015161014083015191975095509350905061089c8584614ce5565b6001600160a01b03808216600090815260db6020908152604080832081516101e0810183528154861681526001820154861681850152600282015490951685830152600381018054835181860281018601909452808452949586958695919460608601939092909190830182828015611e3957602002820191906000526020600020905b81546001600160a01b03168152600190910190602001808311611e1b575b5050505050815260200160048201805480602002602001604051908101604052809291908181526020016000905b82821015611eb2576000848152602090819020604080518082019091526002850290910180546001600160a01b03908116835260019182015416828401529083529092019101611e67565b50505050815260200160058201805480602002602001604051908101604052809291908181526020016000905b82821015611f2857600084815260209081902060408051808201909152908401546001600160a01b0381168252600160a01b900460ff1681830152825260019092019101611edf565b505050908252506006820154602082015260078201546040820152600882015460ff908116606083015260098301546080830152600a83015460a0830152600b83015460c0830152600c83015460e0830152600d83015461010080840191909152600e9093015461012090920191909152908201519192501615611faf5780610100015192505b60e00151919391925050565b6001600160a01b03808216600090815260db6020908152604080832081516101e0810183528154861681526001820154861681850152600282015490951685830152600381018054835181860281018601909452808452949560609587958795879587958795869590949293858901939092919083018282801561206857602002820191906000526020600020905b81546001600160a01b0316815260019091019060200180831161204a575b5050505050815260200160048201805480602002602001604051908101604052809291908181526020016000905b828210156120e1576000848152602090819020604080518082019091526002850290910180546001600160a01b03908116835260019182015416828401529083529092019101612096565b50505050815260200160058201805480602002602001604051908101604052809291908181526020016000905b8282101561215757600084815260209081902060408051808201909152908401546001600160a01b0381168252600160a01b900460ff168183015282526001909201910161210e565b50505090825250600682015460208201526007820154604080830191909152600883015460ff166060808401919091526009840154608080850191909152600a85015460a080860191909152600b86015460c0860152600c86015460e0860152600d860154610100860152600e90950154610120909401939093529084015190840151805192850151805195909401518051929f919e50929c50929a50929850965090945092505050565b612299604051806101e0016040528060006001600160a01b0316815260200160006001600160a01b0316815260200160006001600160a01b031681526020016060815260200160608152602001606081526020016000815260200160008152602001600060ff1681526020016000815260200160008152602001600081526020016000815260200160008152602001600081525090565b6001600160a01b03808316600090815260db602090815260409182902082516101e08101845281548516815260018201548516818401526002820154909416848401526003810180548451818502810185019095528085529193606086019390929083018282801561233457602002820191906000526020600020905b81546001600160a01b03168152600190910190602001808311612316575b5050505050815260200160048201805480602002602001604051908101604052809291908181526020016000905b828210156123ad576000848152602090819020604080518082019091526002850290910180546001600160a01b03908116835260019182015416828401529083529092019101612362565b50505050815260200160058201805480602002602001604051908101604052809291908181526020016000905b8282101561242357600084815260209081902060408051808201909152908401546001600160a01b0381168252600160a01b900460ff16818301528252600190920191016123da565b505050908252506006820154602082015260078201546040820152600882015460ff16606082015260098201546080820152600a82015460a0820152600b82015460c0820152600c82015460e0820152600d820154610100820152600e909101546101209091015292915050565b600080829050612568816001600160a01b03166350d25bcd6040518163ffffffff1660e01b8152600401602060405180830381865afa1580156124d8573d6000803e3d6000fd5b505050506040513d601f19601f820116820180604052508101906124fc9190614ddd565b826001600160a01b031663313ce5676040518163ffffffff1660e01b8152600401602060405180830381865afa15801561253a573d6000803e3d6000fd5b505050506040513d601f19601f8201168201806040525081019061255e9190614df6565b60ff1660126139d1565b9392505050565b610b46612765565b7f4910fdfa16fed3260ed0e7147f7cc6da11a60208b5b9406d12a635614ffd91435460ff16156125aa576110ac83613a05565b826001600160a01b03166352d1902d6040518163ffffffff1660e01b8152600401602060405180830381865afa925050508015612604575060408051601f3d908101601f1916820190925261260191810190614ddd565b60015b6126765760405162461bcd60e51b815260206004820152602e60248201527f45524331393637557067726164653a206e657720696d706c656d656e7461746960448201527f6f6e206973206e6f7420555550530000000000000000000000000000000000006064820152608401610935565b7f360894a13ba1a3210667c828492db98dca3e2076cc3735a920a3ca505d382bbc811461270b5760405162461bcd60e51b815260206004820152602960248201527f45524331393637557067726164653a20756e737570706f727465642070726f7860448201527f6961626c655555494400000000000000000000000000000000000000000000006064820152608401610935565b506110ac838383613ac3565b6000805b60328160ff1610156127615760ff808216600090815260dc60205260409020541615612761578161274b81614d4f565b925050808061275990614d4f565b91505061271b565b5090565b6033546001600160a01b031633146110ce5760405162461bcd60e51b815260206004820181905260248201527f4f776e61626c653a2063616c6c6572206973206e6f7420746865206f776e65726044820152606401610935565b603380546001600160a01b038381166001600160a01b0319831681179093556040519116919082907f8be0079c531659141344cd1fd0a4f28419497f9722a3daafe3b4186f6b6457e090600090a35050565b600054610100900460ff1661287c5760405162461bcd60e51b815260206004820152602b60248201527f496e697469616c697a61626c653a20636f6e7472616374206973206e6f74206960448201526a6e697469616c697a696e6760a81b6064820152608401610935565b6110ce613aee565b600054610100900460ff166110ce5760405162461bcd60e51b815260206004820152602b60248201527f496e697469616c697a61626c653a20636f6e7472616374206973206e6f74206960448201526a6e697469616c697a696e6760a81b6064820152608401610935565b6000670de0b6b3a76400006129048385614cf8565b6125689190614d25565b6001600160a01b038116600090815260db60209081526040808320600881015460ff908116855260dc845293829020825180840190935280549094168252600190930154918101829052906129a55760405162461bcd60e51b815260206004820152601d60248201527f596f75206861766520757067726164656420616c6c206c6576656c732e0000006044820152606401610935565b60648160200151605f6129b89190614cf8565b6129c29190614d25565b8411806129ea57506064816020015160696129dd9190614cf8565b6129e79190614d25565b84105b612a5c5760405162461bcd60e51b815260206004820152602660248201527f56616c75652073686f756c6420626520657175616c20746f207570677261646560448201527f2076616c756500000000000000000000000000000000000000000000000000006064820152608401610935565b83826007016000828254612a709190614ce5565b9091555050805160088301805460ff191660ff909216918217905560005b8160ff168111612cd75760028401546001600160a01b0316600090815260db60205260409020612abf600184614e13565b60ff168203612cc557600881015460ff80851691161180612ae95750600881015460ff8481169116145b8015612afe575080546001600160a01b031615155b15612ba8578681600d016000828254612b179190614ce5565b909155505080546040516001600160a01b039091169089156108fc02908a906000818181858888f19350505050158015612b55573d6000803e3d6000fd5b508054604080516001600160a01b039283168152918816602083015281018990527fb37800f632235e56e1626c9e9df3de1e167e9298f0d25f59fd74ec65e31116529060600160405180910390a1612cbf565b7f6696b78fc1713892e6e2bb3df5cdc986ab67a0c675898c7ef535bd2201ca9451604051612c2d906020808252603f908201527f55706c696e6520686173206e6f742075706772616465642e20416d6f756e742060408201527f7472616e73666572656420746f206c69717569646974792077616c6c65742e00606082015260800190565b60405180910390a160d9546040516001600160a01b039091169081908a156108fc02908b906000818181858888f19350505050158015612c71573d6000803e3d6000fd5b50604080516001600160a01b038084168252891660208201529081018a90527fb37800f632235e56e1626c9e9df3de1e167e9298f0d25f59fd74ec65e31116529060600160405180910390a1505b50612cd7565b9350612cd081614d97565b9050612a8e565b50505050505050565b60d8546064612cf082605f614cf8565b612cfa9190614d25565b841015612d6f5760405162461bcd60e51b815260206004820152602660248201527f56616c7565206973206c657373207468656e20726567697374726174696f6e2060448201527f76616c75652e00000000000000000000000000000000000000000000000000006064820152608401610935565b60d5546001600160a01b03808716600090815260db6020526040808220928a1682528120600683015460ff8086169561010090041693919015612df45760405162461bcd60e51b815260206004820152601760248201527f5573657220616c726561647920726567697374657265640000000000000000006044820152606401610935565b6000816006015411612e485760405162461bcd60e51b815260206004820152601360248201527f5265666572726572204e6f7420416374697665000000000000000000000000006044820152606401610935565b81546001600160a01b0316612e715781546001600160a01b0319166001600160a01b038b161782555b80546001600160a01b0316612e9a5780546001600160a01b0319166001600160a01b038c161781555b81600601546000036132cf5760c98054600180820183556000929092527f66be4f155c5ef2ebd3772b228f2f00681e4ed5826cdb3b1943cc11ad15ad1d280180546001600160a01b0319166001600160a01b038d811691909117909155604080516101e0810182528554831681529285015482166020808501919091526002860154909216838201526003850180548251818502810185019093528083526130dd94938793606086019390929091830182828015612f8157602002820191906000526020600020905b81546001600160a01b03168152600190910190602001808311612f63575b5050505050815260200160048201805480602002602001604051908101604052809291908181526020016000905b82821015612ffa576000848152602090819020604080518082019091526002850290910180546001600160a01b03908116835260019182015416828401529083529092019101612faf565b50505050815260200160058201805480602002602001604051908101604052809291908181526020016000905b8282101561307057600084815260209081902060408051808201909152908401546001600160a01b0381168252600160a01b900460ff1681830152825260019092019101613027565b505050908252506006820154602082015260078201546040820152600882015460ff16606082015260098201546080820152600a82015460a0820152600b82015460c0820152600c82015460e0820152600d820154610100820152600e9091015461012090910152613b62565b6132cf57604080516101e08101825283546001600160a01b039081168252600185015481166020808401919091526002860154909116828401526003850180548451818402810184019095528085526132cf948793606086019391929083018282801561317357602002820191906000526020600020905b81546001600160a01b03168152600190910190602001808311613155575b5050505050815260200160048201805480602002602001604051908101604052809291908181526020016000905b828210156131ec576000848152602090819020604080518082019091526002850290910180546001600160a01b039081168352600191820154168284015290835290920191016131a1565b50505050815260200160058201805480602002602001604051908101604052809291908181526020016000905b8282101561326257600084815260209081902060408051808201909152908401546001600160a01b0381168252600160a01b900460ff1681830152825260019092019101613219565b505050908252506006820154602082015260078201546040820152600882015460ff16606082015260098201546080820152600a82015460a0820152600b82015460c0820152600c82015460e0820152600d820154610100820152600e9091015461012090910152613b8d565b888260060160008282546132e39190614ce5565b9091555050604080516101e08101825283546001600160a01b039081168252600185015481166020808401919091526002860154909116828401526003850180548451818402810184019095528085526134d6948793606086019391929083018282801561337a57602002820191906000526020600020905b81546001600160a01b0316815260019091019060200180831161335c575b5050505050815260200160048201805480602002602001604051908101604052809291908181526020016000905b828210156133f3576000848152602090819020604080518082019091526002850290910180546001600160a01b039081168352600191820154168284015290835290920191016133a8565b50505050815260200160058201805480602002602001604051908101604052809291908181526020016000905b8282101561346957600084815260209081902060408051808201909152908401546001600160a01b0381168252600160a01b900460ff1681830152825260019092019101613420565b505050908252506006820154602082015260078201546040820152600882015460ff16606082015260098201546080820152600a82015460a0820152600b82015460c0820152600c82015460e0820152600d820154610100820152600e9091015461012090910152613c16565b6134e9576134e48b8b613c34565b613551565b7f1f4fff38c5e64af9e759d590409f022ea913658008bb1d0cd35e028244f01ecf604051613548906020808252601f908201527f5573657220416c72656164792068617665207265666572726572207365742e00604082015260600190565b60405180910390a15b600182015460028301548354604080516001600160a01b0394851681529284166020840152921681830152606081018b905290517f0411c58b3c1e8a39d91c901e5c807bff1401650beedc45aba65112756bb929b49181900360800190a1600060646135c060ff88168b614cf8565b6135ca9190614d25565b905060006135d8828a6128ef565b60018501546001600160a01b03908116600090815260db6020526040902080549293509116156136c55780546040516001600160a01b039091169084156108fc029085906000818181858888f1935050505015801561363b573d6000803e3d6000fd5b508054604080516001600160a01b039283168152918f1660208301528101849052600160608201527f153f77382d7e07de734977ae352e9b1f5f8ad4b1c0033c883a9a33456a87836f9060800160405180910390a18181600b0160008282546136a49190614ce5565b925050819055508b8160090160008282546136bf9190614ce5565b90915550505b6136cf8287614ce5565b955060005b8760ff168160ff16101561383f57604080516101e08101825287546001600160a01b0390811682526001890154811660208084019190915260028a0154909116828401526003890180548451818402810184019095528085526137ea948b93606086019391929083018282801561337a576020028201919060005260206000209081546001600160a01b0316815260019091019060200180831161335c57505050505081526020016004820180548060200260200160405190810160405280929190818152602001600090828210156133f3576000848152602090819020604080518082019091526002850290910180546001600160a01b039081168352600191820154168284015290835290920191016133a8565b1561383f5760028601546001600160a01b0316600090815260db60205260408120600a810180549197508f929091613823908490614ce5565b909155509495508594508061383781614d4f565b9150506136d4565b5060cf5460009060649061385d90600160a01b900460ff168e614cf8565b6138679190614d25565b60cf546040519192506001600160a01b03169082156108fc029083906000818181858888f193505050501580156138a2573d6000803e3d6000fd5b5060cf54604080516001600160a01b039092168252602082018390527f5aa75bdb3269082e844d731608afae2a07cbf194f251e3f857b870af86b754fb910160405180910390a18660cc60008282546138fb9190614ce5565b925050819055508c60cb60008282546139149190614ce5565b909155505060d15460009060649061392f9060ff168f614cf8565b6139399190614d25565b60d9546040519192506001600160a01b03169082156108fc029083906000818181858888f19350505050158015613974573d6000803e3d6000fd5b508060d060008282546139879190614ce5565b909155505060d35460649061399f9060ff168f614cf8565b6139a99190614d25565b60d260008282546139ba9190614ce5565b909155505050505050505050505050505050505050565b60006139de83600a614f10565b6139e983600a614f10565b6139f39086614cf8565b6139fd9190614d25565b949350505050565b6001600160a01b0381163b613a825760405162461bcd60e51b815260206004820152602d60248201527f455243313936373a206e657720696d706c656d656e746174696f6e206973206e60448201527f6f74206120636f6e7472616374000000000000000000000000000000000000006064820152608401610935565b7f360894a13ba1a3210667c828492db98dca3e2076cc3735a920a3ca505d382bbc80546001600160a01b0319166001600160a01b0392909216919091179055565b613acc83614458565b600082511180613ad95750805b156110ac57613ae88383614498565b50505050565b600054610100900460ff16613b595760405162461bcd60e51b815260206004820152602b60248201527f496e697469616c697a61626c653a20636f6e7472616374206973206e6f74206960448201526a6e697469616c697a696e6760a81b6064820152608401610935565b6110ce336127bf565b600060d6548260600151511180613b7f575060d654826060015151145b15613b88575060015b919050565b60ca80546101c0830181905282516001820183556000929092527f42d72674974f694b5f5159593243114d38a5c39c89d6b62fee061ff523240ee10180546001600160a01b0319166001600160a01b039283161790558151604051911681527f06baf10092c7ea144c4fb56fb8cf641e1f00e291a535b5d54b547eadb29485a79060200161130d565b60408101516000906001600160a01b031615613b8857506001919050565b6001600160a01b03808216600081815260db6020526040902091841603613c9d5760405162461bcd60e51b815260206004820152601a60248201527f596f752063616e6e6f7420726566657220796f757273656c662e0000000000006044820152606401610935565b60006001600160a01b038416613ccd575060d7546001600160a01b0316600090815260db60205260409020613ce7565b506001600160a01b038316600090815260db602052604090205b604080516101e08101825282546001600160a01b03908116825260018401548116602080840191909152600285015490911682840152600384018054845181840281018401909552808552613def9486936060860193919290830182828015612f81576020028201919060005260206000209081546001600160a01b03168152600190910190602001808311612f635750505050508152602001600482018054806020026020016040519081016040528092919081815260200160009082821015612ffa576000848152602090819020604080518082019091526002850290910180546001600160a01b03908116835260019182015416828401529083529092019101612faf565b613f4057613dfd81836145a3565b60038101805460018082018355600083815260209081902090920180546001600160a01b0319166001600160a01b0388811691909117909155604080516101e081018252865483168152928601548216838501526002860154909116828201528354815181850281018501909252808252613f2d94929386936060860193929091830182828015612f81576020028201919060005260206000209081546001600160a01b03168152600190910190602001808311612f635750505050508152602001600482018054806020026020016040519081016040528092919081815260200160009082821015612ffa576000848152602090819020604080518082019091526002850290910180546001600160a01b03908116835260019182015416828401529083529092019101612faf565b15613f3b57613f3b81614606565b614295565b613f4981614606565b600060db6000613f576146fb565b6001600160a01b03166001600160a01b031681526020019081526020016000209050613f8381846145a3565b604080516101e08101825282546001600160a01b0390811682526001840154811660208084019190915260028501549091168284015260038401805484518184028101840190955280855261408b9486936060860193919290830182828015612f81576020028201919060005260206000209081546001600160a01b03168152600190910190602001808311612f635750505050508152602001600482018054806020026020016040519081016040528092919081815260200160009082821015612ffa576000848152602090819020604080518082019091526002850290910180546001600160a01b03908116835260019182015416828401529083529092019101612faf565b156140995761409981614606565b81548154604080516001600160a01b03938416815291831660208301529186168183015290517fa1b30426557565c4fa85ce5f9c88513d7d3f49d21eb30569c249b07b037831ef9181900360600190a1604080518082019091526001600160a01b0380861682528254811660208084019182526004860180546001818101835560009283529282209551600290910290950180549585166001600160a01b0319968716178155925192909101805492909316919093161790556006840154900361426557604080516101e08101825284546001600160a01b039081168252600186015481166020808401919091526002870154909116828401526003860180548451818402810184019095528085526142659488936060860193919290830182828015613173576020028201919060005260206000209081546001600160a01b0316815260019091019060200180831161315557505050505081526020016004820180548060200260200160405190810160405280929190818152602001600090828210156131ec576000848152602090819020604080518082019091526002850290910180546001600160a01b039081168352600191820154168284015290835290920191016131a1565b6003018054600181018255600091825260209091200180546001600160a01b0319166001600160a01b0385161790555b60018201546001600160a01b03166143135780546001830180546001600160a01b039283166001600160a01b0319909116811790915560028401546040805192835290831660208301529185168183015290517f8efa008f8ae98ae30d3219078a298c85bc25a62f50c57ed9a3ec838b7eed9f479181900360600190a15b60d554610100900460ff1660005b8160ff168160ff1610156110a85760028401546001600160a01b0316156110a85760028401546001600160a01b03908116600090815260db60209081526040918290208251808401909352928816825291945060058501918101614386846001614dc4565b60ff90811690915282546001818101855560009485526020948590208451920180549590940151909216600160a01b0274ffffffffffffffffffffffffffffffffffffffffff199094166001600160a01b03918216179390931790915584547f85db3f10b88ea7fc653f3f818097a3fc3c543196ed60cad2251df922bcc9ad7f9216908790614416908590614dc4565b604080516001600160a01b03948516815293909216602084015260ff169082015260600160405180910390a1829350808061445090614d4f565b915050614321565b61446181613a05565b6040516001600160a01b038216907fbc7cd75a20ee27fd9adebab32041f755214dbc6bffa90cc0225b39da2e5c2d3b90600090a250565b60606001600160a01b0383163b6145175760405162461bcd60e51b815260206004820152602660248201527f416464726573733a2064656c65676174652063616c6c20746f206e6f6e2d636f60448201527f6e747261637400000000000000000000000000000000000000000000000000006064820152608401610935565b600080846001600160a01b0316846040516145329190614f40565b600060405180830381855af49150503d806000811461456d576040519150601f19603f3d011682016040523d82523d6000602084013e614572565b606091505b509150915061459a8282604051806060016040528060278152602001614f9060279139614782565b95945050505050565b81546002820180546001600160a01b0319166001600160a01b0392831617905582548254604080519284168352921660208201527fec49a3c8c4ae06c18160fe86119c381c9d213ac3e052ff35b594da8687b193c7910160405180910390a15050565b60ca805461461690600190614d6e565b8154811061462657614626614d39565b9060005260206000200160009054906101000a90046001600160a01b031660ca82600e01548154811061465b5761465b614d39565b9060005260206000200160006101000a8154816001600160a01b0302191690836001600160a01b0316021790555060ca80548061469a5761469a614d81565b6000828152602090819020600019908301810180546001600160a01b031916905590910190915581546040516001600160a01b0390911681527f644b85583ba83e73113ffc0c122b165819ca11db493cd4cc38f5ba29138ffa1b910161130d565b600080424461470b600143614d6e565b60408051602081019490945283019190915240606082015260800160408051601f19818403018152919052805160209091012060ca549091506000906147519083614db0565b905060ca818154811061476657614766614d39565b6000918252602090912001546001600160a01b03169392505050565b60608315614791575081612568565b61256883838151156147a65781518083602001fd5b8060405162461bcd60e51b81526004016109359190614f5c565b80356001600160a01b0381168114613b8857600080fd5b6000602082840312156147e957600080fd5b612568826147c0565b600081518084526020808501945080840160005b8381101561482b5781516001600160a01b031687529582019590820190600101614806565b509495945050505050565b60208152600061256860208301846147f2565b634e487b7160e01b600052604160045260246000fd5b6000806040838503121561487257600080fd5b61487b836147c0565b9150602083013567ffffffffffffffff8082111561489857600080fd5b818501915085601f8301126148ac57600080fd5b8135818111156148be576148be614849565b604051601f8201601f19908116603f011681019083821181831017156148e6576148e6614849565b816040528281528860208487010111156148ff57600080fd5b8260208601602083013760006020848301015280955050505050509250929050565b60408082528351828201819052600091906020906060850190828801855b8281101561496f5761495f848351805160ff168252602090810151910152565b928501929084019060010161493f565b50505060ff95909516930192909252509092915050565b6000806040838503121561499957600080fd5b6149a2836147c0565b9150602083013580151581146149b757600080fd5b809150509250929050565b60ff81168114610b4657600080fd5b6000602082840312156149e357600080fd5b8135612568816149c2565b815160ff1681526020808301519082015260408101610966565b60008060408385031215614a1b57600080fd5b614a24836147c0565b9150614a32602084016147c0565b90509250929050565b60008060208385031215614a4e57600080fd5b823567ffffffffffffffff80821115614a6657600080fd5b818501915085601f830112614a7a57600080fd5b813581811115614a8957600080fd5b8660208260051b8501011115614a9e57600080fd5b60209290920196919550909350505050565b600081518084526020808501945080840160005b8381101561482b57815180516001600160a01b03908116895290840151168388015260409096019590820190600101614ac4565b600081518084526020808501945080840160005b8381101561482b57815180516001600160a01b0316885283015160ff168388015260409096019590820190600101614b0c565b6001600160a01b038816815260e060208201526000614b6160e08301896147f2565b8760408401528281036060840152614b798188614ab0565b905085608084015282810360a0840152614b938186614af8565b9150508260c083015298975050505050505050565b60208152614bc26020820183516001600160a01b03169052565b60006020830151614bde60408401826001600160a01b03169052565b5060408301516001600160a01b03811660608401525060608301516101e0806080850152614c106102008501836147f2565b91506080850151601f19808685030160a0870152614c2e8483614ab0565b935060a08701519150808685030160c087015250614c4c8382614af8565b92505060c085015160e085015260e0850151610100818187015280870151915050610120614c7e8187018360ff169052565b8601516101408681019190915286015161016080870191909152860151610180808701919091528601516101a0808701919091528601516101c0808701919091529095015193019290925250919050565b634e487b7160e01b600052601160045260246000fd5b8082018082111561096657610966614ccf565b808202811582820484141761096657610966614ccf565b634e487b7160e01b600052601260045260246000fd5b600082614d3457614d34614d0f565b500490565b634e487b7160e01b600052603260045260246000fd5b600060ff821660ff8103614d6557614d65614ccf565b60010192915050565b8181038181111561096657610966614ccf565b634e487b7160e01b600052603160045260246000fd5b600060018201614da957614da9614ccf565b5060010190565b600082614dbf57614dbf614d0f565b500690565b60ff818116838216019081111561096657610966614ccf565b600060208284031215614def57600080fd5b5051919050565b600060208284031215614e0857600080fd5b8151612568816149c2565b60ff828116828216039081111561096657610966614ccf565b600181815b80851115614e67578160001904821115614e4d57614e4d614ccf565b80851615614e5a57918102915b93841c9390800290614e31565b509250929050565b600082614e7e57506001610966565b81614e8b57506000610966565b8160018114614ea15760028114614eab57614ec7565b6001915050610966565b60ff841115614ebc57614ebc614ccf565b50506001821b610966565b5060208310610133831016604e8410600b8410161715614eea575081810a610966565b614ef48383614e2c565b8060001904821115614f0857614f08614ccf565b029392505050565b60006125688383614e6f565b60005b83811015614f37578181015183820152602001614f1f565b50506000910152565b60008251614f52818460208701614f1c565b9190910192915050565b6020815260008251806020840152614f7b816040850160208701614f1c565b601f01601f1916919091016040019291505056fe416464726573733a206c6f772d6c6576656c2064656c65676174652063616c6c206661696c6564a2646970667358221220e21585b9ced4a10f2a3dd72619c6df8bda22ed5c22555249b31e03423f86b10764736f6c63430008120033",
  "linkReferences": {},
  "deployedLinkReferences": {}
}